:100000000C943E000C9453000C9453000C94530039
:100010000C9453000C9453000C9453000C947600F1
:100020000C9453000C9453000C94A0000C945300B7
:100030000C9453000C9453000C9453000C945300F4
:100040000C9453000C9453000C94B9010C9453007D
:100050000C9453000C9453000C9453000C945300D4
:100060000C9453000C9453000C9453000C945300C4
:100070000C9453000C9453000C94530011241FBE95
:10008000CFEFD4E0DEBFCDBF11E0A0E0B1E0EAE207
:10009000F4E002C005900D92A630B107D9F70E9496
:1000A00006020C9413020C94000084E4809369000F
:1000B00089E08DBB80E090E008951F93CF93DF939C
:1000C0001F92CDB7DEB71FB7672B11F0498301C070
:1000D000198221E0AE014F5F5F4F6AE00E94750117
:1000E0001FBF0F90DF91CF911F9108951F920F9224
:1000F0000FB60F9211242F933F934F935F936F93FB
:100100007F938F939F93AF93BF93EF93FF9369B1C7
:10011000607470E041E08FE090E00E945D00FF912C
:10012000EF91BF91AF919F918F917F916F915F916F
:100130004F913F912F910F900FBE0F901F901895E8
:100140001F920F920FB60F9211242F933F934F934C
:100150005F936F937F938F939F93AF93BF93EF932F
:10016000FF9366B161704FEF70E08FE090E00E9406
:100170005D00FF91EF91BF91AF919F918F917F9122
:100180006F915F914F913F912F910F900FBE0F9004
:100190001F901895699A8EB192E089278EB90895BB
:1001A000789491E09093D8001092E50098E09093B5
:1001B000E20094E09093E30093E19093E40090EAEE
:1001C0009093DB001092DF0097E09093DE0090E0C8
:1001D000292F2295207F2093ED001092EF0010929E
:1001E000EE009F5F9630A1F790E29093ED0095E0CE
:1001F0009093F4001092F0001092F5001092F1002C
:100200001092F6001092F20098EF9093F70028E019
:10021000829FC00111248093F30088E88093EF004F
:10022000539A8091D80082608093D80080E090E05B
:1002300008950F931F93CF93DF93CDB7DEB70DB71C
:100240001EB78091ED00807F8093ED002091EF003C
:100250002F70822F90E04DB75EB7481B590B0FB639
:10026000F8945EBF0FBE4DBF4F5F5F4FFA01BF01F5
:10027000641B750B6817790724F43091FA003193E9
:10028000F6CF3091F3008091F20061E070E0FB0165
:1002900002C0EE0FFF1F8A95E2F7CF01807E9927FB
:1002A000E5E095958795EA95E1F702C0660F771F1F
:1002B0003A95E2F7F3E0660F771FFA95E1F7862BA0
:1002C000972B682F6F73807C0E94CA008091EF008B
:1002D00080688093EF000FB6F8941EBF0FBE0DBF6D
:1002E000DF91CF911F910F910895CF93DF931092DB
:1002F000ED009091DC0090FDFCCF9091DC009160CE
:100300009093DC001092EE00FA01A22FB0E0EF0112
:10031000C41BD50BCA17DB0724F491919093FA0004
:10032000F6CF1092F0001092F1008F7130E4839FAD
:10033000C00111246F73862B382F3295330F307E16
:100340003093F200A3E096958795AA95E1F7809304
:10035000F30020642093EF008091EE0086FFFCCF35
:100360001092EF001092EE0080E090E0DF91CF91CC
:1003700008951F920F920FB60F9211242F933F935F
:100380004F935F936F937F938F939F93AF93BF939D
:10039000CF93EF93FF93CFB78091EC009091ED0056
:1003A0009F709093ED009091ED00807F892B80935A
:1003B000ED008091EE0085FF08C08091EE008F7DFA
:1003C0008093EE000E9419010EC08091EE0086FF1E
:1003D00006C08091EE008F7B8093EE0004C0809178
:1003E000EE001092EE00CFBFFF91EF91CF91BF9141
:1003F000AF919F918F917F916F915F914F913F91BD
:100400002F910F900FBE0F901F90189584B18FEF12
:1004100084B9389856987894809104010E94D0004D
:0A0420000E945500FFCFF894FFCFB3
:06042A000E000D000C00A5
:00000001FF
